S01100002E2E2F50726F746575732E73313966
S32D0000C000000000205DC2000011C3000017C300001DC3000023C3000029C3000000000000000000000000000073
S32D0000C028000000002FC3000035C30000000000003BC3000041C3000081DD00008DDD000099DD0000A5DD00003E
S32D0000C050B1DD0000BDDD0000C9DD0000D5DD0000E1DD0000EDDD0000F9DD000005DE000011DE00001DDE000017
S32D0000C07829DE000035DE000041DE00004DDE000059DE000065DE000071DE00007DDE000089DE000095DE000038
S32D0000C0A0A1DE0000ADDE0000B9DE0000C5DE0000D1DE0000DDDE0000E9DE0000F5DE000001DF00000DDF00005E
S32D0000C0C819DF000025DF000031DF00003DDF000049DF000055DF000061DF00006DDF000079DF000085DF00007E
S32D0000C0F091DF0000353201009DDF0000A9DF0000B5DF0000C1DF0000CDDF0000D9DF0000E5DF0000F1DF00001A
S32D0000C118FDDF000009E0000015E0000021E000002DE0000039E0000045E0000051E000005DE0000069E000003C
S32D0000C14075E0000081E000008DE0000099E00000D9080100A5E00000B1E00000BDE00000C9E00000D5E0000042
S32D0000C168E1E00000EDE00000F9E0000005E1000011E100001DE1000029E1000035E1000041E100004DE10000FC
S32D0000C19059E1000065E1000071E10000CD040100950301003104010005DB00006D0501007DE1000089E10000F3
S32D0000C1B895E10000B4C3010000000020E0160000B4C301000000FF1F00000000E0160020800400000000FF1F07
S32D0000C1E00000000080B489B000AFF860B9607A60BB68FB61FB68BB6100237B617A697B689A420BD2BA69131DFB
S32D0000C208BB61FB69191DF96112681A607B6904337B61EFE700BF2437BD4680BC704780B485B000AF786039609E
S32D0000C2307B68FB600023BB60BA683B689A4208D2FB681A1DFA6000221A60BB680433BB60F2E700BF1437BD46FE
S32D0000C25880BC704780B586B000AF72B6234B4CF220521A80214B4DF628121A80204B4FF4E9721A801F4B7B615F
S32D0000C2807B691F4A934214D27B691A1D7A611B683B617B691A1D7A611B68FB607B691A1D7A611B68BB60BA68E9
S32D0000C2A8F9683869FFF79AFFE6E77B69134A93420ED27B691A1D7A611B68FB607B691A1D7A611B68BB60B9688B
S32D0000C2D0F868FFF7A8FFECE70B4B7B600B4A7B681A6009F00DF962B601F0D4FC00F038FFFEE700BF0E20054077
S32D0000C2F800200540BCC10000D4C10000E4C1000008ED00E000C0000080B400AFFEE780B400AFFEE780B400AFF4
S32D0000C320FEE780B400AFFEE780B400AFFEE780B400AFFEE780B400AFFEE780B400AFFEE780B400AFFEE780B426
S32D0000C34800AFFEE7FFFFFFFFFFFFFFFFFFFFFFFFFFFFFFFFFFFFFFFFFFFFFFFFFFFFFFFFFFFFFFFFFFFFFFFF57
S32D0000C370FFFFFFFFFFFFFFFFFFFFFFFFFFFFFFFFFFFFFFFFFFFFFFFFFFFFFFFFFFFFFFFFFFFFFFFFFFFFFFFFC7
S32D0000C398FFFFFFFFFFFFFFFFFFFFFFFFFFFFFFFFFFFFFFFFFFFFFFFFFFFFFFFFFFFFFFFFFFFFFFFFFFFFFFFF9F
S32D0000C3C0FFFFFFFFFFFFFFFFFFFFFFFFFFFFFFFFFFFFFFFFFFFFFFFFFFFFFFFFFFFFFFFFFFFFFFFFFFFFFFFF77
S32D0000C3E8FFFFFFFFFFFFFFFFFFFFFFFFFFFFFFFFFFFFFFFFFFFFFFFFFFFFFFFFFFFFFFFFFFFFFFFFFEFFFFFF50
S32D0000C44010B5054C237833B9044B13B10448AFF300800123237010BDE01600200000000010C4000008B5034B37
S32D0000C4681BB103490348AFF3008008BD00000000E416002010C4000080B500AF4FF00001094801F009FF4FF0C1
S32D0000C4900001084801F004FF03A1D1E9000103F0C1FD00BF80BD00BF9A9999999999B93F081700201017002059
S32D0000C4B8F0B587B000AFC7E9020111461A460B46FB711346BB71444804F0AAF8434804F0A7F8434BD3E9002372
S32D0000C4E01046194608F0FEFA0246FB791946104600F084FD78613D4BD3E900231046194608F0F0FA0246BB7954
S32D0000C5081946104600F076FD3861786907F0E2FF2BA3D3E9002308F047F802460B461046194608F023FB03460A
S32D0000C53019462F4801F0B4FE386907F0CFFF24A3D3E9002308F034F802460B461046194608F010FB034619463B
S32D0000C558264801F0A1FE214804F050F804461E4804F04CF803462344184607F0B3FF04460D461F4BD3E90001AF
S32D0000C580D7E9022308F014F802460B461046194611A3D3E9002308F00BF802460B4601210E462046294608F0EC
S32D0000C5A875FA0346002B01D100231E46F3B2002B00D0D0E7FFF760FF00BF1C37BD46F0BD666666666666EE3F2A
S32D0000C5D0790DE53594D7F03F9EEFA7C64B37F73F00170020041700200800002010000020081700201017002001
S32D0000C5F80000002000000000F0B58BB000AFC7E9020111461A460B46FB711346BB716C4804F006F86B4804F06D
S32D0000C62003F86B4BD3E900231046194608F05AFA0246FB791946104600F0E0FCF861654BD3E900231046194681
S32D0000C64808F04CFA0246BB791946104600F0D2FCB861F86907F03EFF51A3D3E9002307F0A3FF02460B4610468E
S32D0000C670194608F07FFA03461946574801F010FEB86907F02BFF4AA3D3E9002307F090FF02460B4610461946A4
S32D0000C69808F06CFA034619464E4801F0FDFD4FF000024D4BC7E90823464803F0A7FF0446434803F0A3FF03465F
S32D0000C6C02344184607F00AFF04460D46454BD3E90001D7E9022307F06BFF02460B461046194635A3D3E9002352
S32D0000C6E807F062FF02460B4601210E462046294608F0CCF90346002B01D100231E46F3B2002B18D0364803F035
S32D0000C710AFFF0346184607F0F3FE02460B46C7E90423D7E90823D7E9040108F0B3F90346002B03D0D7E90423CC
S32D0000C738C7E90823B8E7FFF79FFE2A4804F0EBFE1DA3D3E90023D7E9080108F09FF90346002B0FD02449234854
S32D0000C76005F0A9F8D7E90823204805F02BF94FF00000204903F056FC01230EE01C491B4805F099F8D7E9082371
S32D0000C788184805F01BF94FF00000184903F046FC002318462C37BD46F0BD00BFAFF300805C8FC2F5285CEF3F7C
S32D0000C7B015BC9C829753F03F9EEFA7C64B37F73F666666666666EE3F0017002004170020080000201000002046
S32D0000C7D8081700201017002000003A4000000020FC160020081A00204CB801000000F03F80B586B000AFC7E9A1
S32D0000C800020111461A460B46FB711346BB711E4803F00AFF1D4803F007FF1D4BD3E900231046194608F05EF903
S32D0000C8280246FB791946104600F0E4FB7861174BD3E900231046194608F050F90246BB791946104600F0D6FBA0
S32D0000C8503861786908F098FA034619460E4801F01FFD386908F090FA034619460B4801F017FDD7E9020103F0D2
S32D0000C878D5FBFFF701FE00BF1837BD4680BD00BF00170020041700200800002010000020081700201017002070
S32D0000C8A080B586B000AFC7E9020111461A460B46FB711346BB71364803F0B6FE354803F0B3FE354BD3E90023FF
S32D0000C8C81046194608F00AF90246FB791946104600F090FB78612F4BD3E900231046194608F0FCF80246BB7957
S32D0000C8F01946104600F082FB3861786907F0EEFD4FF00002264B07F053FE02460B46104619461BA3D3E90023B7
S32D0000C91807F04AFE02460B461046194608F026F9034619461D4801F0B7FC386907F0D2FD4FF00002184B07F09A
S32D0000C94037FE02460B46104619460FA3D3E9002307F02EFE02460B461046194608F00AF903461946104801F058
S32D0000C9689BFCD7E9020103F059FBFFF785FD00BF1837BD4680BD00BF5C8FC2F5285CEF3F15BC9C829753F03F1F
S32D0000C990001700200417002008000020100000200000E03F081700201017002000000000F0B587B000AFC7E9CF
S32D0000C9B8020111461A460B46FB711346BB71444803F02EFE434803F02BFE434BD3E900231046194608F082F86F
S32D0000C9E00246FB791946104600F008FB78613D4BD3E900231046194608F074F80246BB791946104600F0FAFA57
S32D0000CA083861786907F066FD2BA3D3E9002307F0CBFD02460B461046194608F0A7F8034619462F4801F038FC97
S32D0000CA30386907F053FD24A3D3E9002307F0B8FD02460B461046194608F094F803461946264801F025FC21483B
S32D0000CA5803F0D4FD04461E4803F0D0FD03462344184607F037FD04460D461F4BD3E90001D7E9022307F098FD0E
S32D0000CA8002460B461046194611A3D3E9002307F08FFD02460B4601210E462046294607F0F9FF0346002B01D10B
S32D0000CAA800231E46F3B2002B00D0D0E7FFF7E4FC00BF1C37BD46F0BD14AE47E17A14EE3FC4E40A627205F13F8A
S32D0000CAD09EEFA7C64B37F73F001700200417002008000020100000200817002010170020000000200000000016
S32D0000CAF880B586B000AFC7E9020111461A460B46FB711346BB71284803F08AFD274803F087FD274BD3E900014B
S32D0000CB2021A3D3E9002307F043FD02460B461046194607F0D7FF0246FB791946104600F05DFA78611D4BD3E93D
S32D0000CB48000117A3D3E9002307F02EFD02460B461046194607F0C2FF0246BB791946104600F048FA3861786920
S32D0000CB7008F00AF903461946114801F091FB386908F002F9034619460E4801F089FBD7E9020103F047FAFFF72A
S32D0000CB9873FC00BF1837BD4680BD00BFAFF300809A99999999990140001700200417002008000020100000202F
S32D0000CBC00817002010170020F0B587B000AFC7E9020111461A460B46FB711346BB71424803F022FD414803F072
S32D0000CBE81FFD414BD3E900231046194607F076FF0246FB791946104600F0FCF978613B4BD3E90023104619462E
S32D0000CC1007F068FF0246BB791946104600F0EEF93861786907F05AFC4FF03332324B07F0BFFC02460B46104607
S32D0000CC38194607F09BFF034619462E4801F02CFB386907F047FC22A3D3E9002307F0ACFC02460B46104619463C
S32D0000CC6007F088FF03461946254801F019FB1F4803F0C8FC04461C4803F0C4FC03462344184607F02BFC044619
S32D0000CC880D461E4BD3E90001D7E9022307F08CFC02460B46104619460FA3D3E9002307F083FC02460B46012191
S32D0000CCB00E462046294607F0EDFE0346002B01D100231E46F3B2002B00D0D0E7FFF7D8FB00BF1C37BD46F0BD9C
S32D0000CCD8CDCCCCCCCCCCF43F105839B4C876F23F001700200417002008000020100000203333F33F08170020CD
S32D0000CD001017002000000020F0B587B000AFF860C7E90023524803F087FC524803F084FC514804F0FCFB514BAB
S32D0000CD28D3E900231046194607F0D8FE024697F830301946104600F05DF978614A4BD3E900231046194607F051
S32D0000CD50C9FE024697F834301946104600F04EF93861FB68B3F1FF3F36D1386908F00CF8034619463F4801F025
S32D0000CD7893FA3A4803F042FC0446374803F03EFC03462344184607F0A5FB04460D46384BD3E90001D7E90023F2
S32D0000CDA007F006FC02460B46104619462AA3D3E9002307F027FD02460B4601210E462046294607F067FE0346CE
S32D0000CDC8002B01D100231E46F3B2002B37D0D0E7786907F0D5FF03461946264801F05CFA1E4803F00BFC044678
S32D0000CDF01B4803F007FC03462344184607F06EFB04460D461C4BD3E90001D7E9002307F0CFFB02460B461046FA
S32D0000CE1819460FA3D3E9002307F0F0FC02460B4601210E462046294607F030FE0346002B01D100231E46F3B29E
S32D0000CE40002B00D0D0E7FFF71BFB00BF1C37BD46F0BD00BFAFF300800000000000205C40001700200417002035
S32D0000CE68081A00200800002010000020101700200000002008170020F0B587B000AFF860C7E90023544803F017
S32D0000CE90CBFB544803F0C8FB534BD3E900231046194607F01FFE024697F830301946104600F0A4F878614D4B2D
S32D0000CEB8D3E900231046194607F010FE024697F834301946104600F095F83861FB68B3F1FF3F38D17B695B42DE
S32D0000CEE0184607F051FF03461946414801F0D8F93C4803F087FB0446394803F083FB03462344184607F0EAFA6E
S32D0000CF0804460D46394BD3E90001D7E9002307F04BFB02460B46104619462BA3D3E9002307F06CFC02460B460A
S32D0000CF3001210E462046294607F0ACFD0346002B01D100231E46F3B2002B39D0D0E73B695B42184607F018FFDE
S32D0000CF5803461946264801F09FF9204803F04EFB04461D4803F04AFB03462344184607F0B1FA04460D461D4BCC
S32D0000CF80D3E90001D7E9002307F012FB02460B461046194610A3D3E9002307F033FC02460B4601210E46204664
S32D0000CFA8294607F073FD0346002B01D100231E46F3B2002B00D0D0E7FFF75EFA00BF1C37BD46F0BDAFF300802F
S32D0000CFD00000000000205C400000000000C05C40001700200417002008000020100000200817002000000020F2
S32D0000CFF81017002080B485B000AF78600B46FB707B68FB60FB78002B02D0FB685B42FB60FB6818461437BD4600
S32D0000D02080BC704780B400AF084B1B7883F00103DAB2064B1A70064B1B7883F00103DAB2034B1A7000BFBD46C7
S32D0000D04880BC704718000020251700200000000080B500AF084801F0DDF8084801F0DAF803A1D1E9000102F0D5
S32D0000D070D9FF00BF80BD00BF9A9999999999B93F081700201017002098B500AF144803F0EFFA034601221446F0
S32D0000D0984FF07F51184608F083F80346002B01D100231C46E3B2002B10D00C4804F033FA094803F0D9FA03464A
S32D0000D0C01946084804F01EFC03A1D1E9000102F0A9FFDBE700BF98BD9A9999999999B93FFC160020081A0020B3
S32D0000D0E880B584B000AFC7E900014FF000024FF00003C7E90223D7E90023D7E9020107F0C5FC0346002B00D156
S32D0000D1101BE0114804F003FA104803F0A9FA034619460D4804F0EEFB09A1D1E9000102F079FF07A3D3E900238C
S32D0000D138D7E9020107F082F802460B46C7E90223D9E71037BD4680BD9A9999999999B93F081A0020FC160020DD
S32D0000D16080B596B002AF1B4A07F1140307CA03C31A8007F114031946174806F001FD4FF40271164803F072FD99
S32D0000D18840F68101134803F08AFD1349114803F0A3FD124804F0BEFD07F10C0207F1100319460E4804F074FA73
S32D0000D1B0034683F00103DBB2002B00D0F0E73A1D07F108031946074804F066FA0346002B0AD0F4E76CB8010088
S32D0000D1D8701A00201817002000003443081A0020FFF74EFFFFF71AFFB14B1A78B14B1B784FF00000B049FFF7DA
S32D0000D200D7FBFFF70FFFAC4B1A78AC4B1B784FF00000AC49FFF750F9A74B1B78A74A1278019200934FF000023D
S32D0000D228A74B4FF0FF30FFF76BFDFFF7F7FEA04B1A78A04B1B784FF00000A249FFF7B4FBFFF7ECFE9A4B1A780E
S32D0000D2509A4B1B7884A1D1E90001FFF72DF9964B1B78964A1278019200934FF00002984B0120FFF705FE904B1F
S32D0000D2781A78904B1B787CA1D1E90001FFF7A0FC8B4B1B788B4A12780192009378A3D3E900234FF0FF30FFF7D2
S32D0000D2A033FDFFF7BFFE844B1A78844B1B784FF000008449FFF7A0FAFFF7B4FE7E4B1A787E4B1B786EA1D1E9F6
S32D0000D2C80001FFF7F5F87A4B1B787A4A1278019200934FF000027D4B4FF0FF30FFF7CCFD734B1A78734B1B78B1
S32D0000D2F065A1D1E90001FFF77FFAFFF793FE6E4B1A786E4B1B7862A1D1E90001FFF750FBFFF788FE70497148D5
S32D0000D31803F0E2FC4FF00000684902F07FFE6E496C4803F0D9FCFFF779FE614B1A78614B1B7857A1D1E90001E7
S32D0000D340FFF736FBFFF76EFE5B4B1B785B4A1278019200934FF00002624B0120FFF7D4FCFFF760FE544B1A784E
S32D0000D368544B1B784FF000005D49FFF795FAFFF755FE4F4B1B784F4A1278019200934FF000024FF080430120D8
S32D0000D390FFF7BAFC484B1A78484B1B7840A1D1E90001FFF789F8444B1B78444A1278019200934FF000024D4B2C
S32D0000D3B80120FFF761FD4FF00001464803F08CFC4FF000003D4902F029FE394B1A78394B1B784FF000004449B2
S32D0000D3E0FFF70AFA344B1B78344A1278019200934FF00002334B0120FFF786FC3D49374803F06EFC4FF00000EC
S32D0000D4082E4902F00BFE2A4B1A782A4B1B7824A1D1E90001FFF76CFB4FF00000324902F0FDFD234B1B78234A84
S32D0000D4301278019200931EA3D3E900234FF0FF30FFF71EFDFFF7EEFD1B4B1A781B4B1B784FF000001B49FFF794
S32D0000D458ABFAFFF7E3FD164B1A7849E0AFF3008085EB51B81E85E33FCDCCCCCCCCCC08400000000000C0554049
S32D0000D480A4703D0AD7A3FD3FCDCCCCCCCCCCEC3F9A9999999999C93F333333333333D33F7B14AE47E17AF03F88
S32D0000D4A8333333333333C33F0000000000C0574018000020251700200000D03F0000F03F000048400000FC3F36
S32D0000D4D000005A40008055400000B4421817002000003443000058400000184000805A400000E03F00007042E8
S32D0000D4F84B4B1B7842A1D1E90001FEF7D9FF494B1B78474A1278019200934FF00002464B0120FFF7F5FB4549A3
S32D0000D520454803F0DDFB414B1A783F4B1B784FF000004249FFF764F8034687F83F30404803F0EDFF97F83F3092
S32D0000D54819463D4804F04EFA364B1A78344B1B784FF000003949FFF74BF94FF00000384902F05CFDFFF75AFD1D
S32D0000D5702E4B1A782C4B1B7825A1D1E90001FFF73FF8034687F83E30FFF74CFD2C4803F0C6FF97F83F301946CC
S32D0000D598294804F027FA4FF00000294902F03EFD4FF000002649FFF79BFD264803F05CF80346184606F0A0FFD4
S32D0000D5C002460B46C7E90C2397F83F3083F00103DBB2002B3ED097F83E3083F00103DBB2002B37D0164803F006
S32D0000D5E89AFF1949144804F062F909A1D1E9000102F014FD08A3D3E90023C7E9122336E0CDCCCCCCCCCCE03F9A
S32D0000D610C3F5285C8FC2D53F9A9999999999B93FF6285C8FC2F5E03F25170020180000200080484000003443CA
S32D0000D638181700200000FC3F081A00200000E03F0000F03FFC16002058B801007E4803F062FF7E497C4804F0CE
S32D0000D6602AF971A1D1E9000102F0DCFC4FF00002794BC7E91223794B1A78794B1B784FF000007849FFF7B8F8A5
S32D0000D688FFF7CCFC734B1A78734B1B7864A1D1E90001FFF789F9FFF7C1FC6E4B1B786E4A1278019200934FF037
S32D0000D6B000026D4B4FF0FF30FFF7E2FBFFF7B2FC664B1A78664B1B78D7E91201FFF770F9FFF7A8FC614B1B781B
S32D0000D6D8614A1278019200934FF00002614B4FF0FF30FFF70DFBFFF799FC5A4B1A785A4B1B784FF000005C4992
S32D0000D700FFF756F9FFF78EFC544B1B78544A1278019200934FF00002564B0120FFF7F4FA4E4B1A784E4B1B7878
S32D0000D7284FF000005249FEF7C3FE4A4B1B784A4A1278019200934FF000024E4B0120FFF79BFB444B1A78444BA0
S32D0000D7501B784FF000004FF08041FFF74DF8FFF761FC3E4B1A783E4B1B7831A1D1E90001FFF71EF9FFF756FC32
S32D0000D778384B1B78384A1278019200934FF00002384B4FF0FF30FFF7BBFA324B1A78324B1B7827A1D1E90001BC
S32D0000D7A0FEF78AFE2D4B1B782D4A1278019200934FF00002324B4FF0FF30FFF7A5FAFFF731FC264B1A78264B54
S32D0000D7C81B784FF000002849FFF7EEF8FFF726FC0223FB62FB6A294A134419461A4804F066F815A3D3E90023A1
S32D0000D7F0C7E910234FF000024FF07F53C7E90823FB6A022B05D110A3D3E90023C7E910233FE0FB6A012B37D166
S32D0000D8184FF00002144BC7E9102336E0AFF300809A9999999999B93FCDCCCCCCCCCCD43FCDCCCCCCCCCCFC3FB8
S32D0000D840666666666666F63FA4703D0AD7A3F43F081A002060B801000000F23F18000020251700200000E83FD2
S32D0000D86800804440000055400000F03F000024400000F43F008054400080554064B801004FF000026C4BC7E945
S32D0000D89010236C4B1A786C4B1B78D7E91001FEF70BFE684B1B78684A1278019200935CA3D3E900230120FFF738
S32D0000D8B8E3FAFFF7B3FB614B1A78614B1B7858A1D1E90001FFF770F8FFF7A8FB5B4B1A785B4B1B7854A1D1E979
S32D0000D8E00001FEF7E9FD5949594803F0F9F94FF00000584902F096FB5749554803F0F0F94FF00000534902F0CD
S32D0000D9088DFBFFF78BFB4D4B1A784D4B1B7848A1D1E90001FFF748F8FFF780FB4FF000004C4902F07BFB4FF0D2
S32D0000D9300001474803F0D4F94FF00000454902F071FB404B1B78404A1278019200934FF00002434B0120FFF710
S32D0000D958D7F93A4B1A783A4B1B7835A1D1E90001FEF7A6FD3D49384803F0B6F94FF00000364902F053FBFFF7DD
S32D0000D98051FB304B1A78304B1B784FF000003149FFF70EF8FFF746FB33492D4803F0A0F9284B1B78284A1278A7
S32D0000D9A8019200934FF000022E4B4FF0FF30FFF7A7F9224B1A78224B1B784FF000002A49FEF716FFFFF72AFB97
S32D0000D9D01C4B1A781C4B1B784FF000001D49FEF7E7FFFFF71FFB174B1A78174B1B784FF000001B49FEF700FF26
S32D0000D9F8FFF714FB114B1A78114B1B784FF000001249FEF7D1FFFFF709FBFFF721FB002318465037BD4680BD6C
S32D0000DA200000000000C05940333333333333E33FF6285C8FC2F5D83F9A9999999999C93F0000E83F1800002056
S32D0000DA48251700200000F041181700200000E03F00007042000014400000F03F0000344200003443000045400E
S32D0000DA700000044080B582B000AF786039607B68012B22D13B684FF6FF7293421DD10021104802F0DBFD082133
S32D0000DA980F4802F005FB10210E4802F001FB0E4A00210E4800F078FB0B4A01210C4800F073FB00210B4803F0E0
S32D0000DAC0B9F818210A4802F0C1FD00BF0837BD4680BD00BFFC160020001700200417002000001041081700201B
S32D0000DAE810170020181700202417002080B500AF4FF6FF710120FFF7B9FF80BD80B500AF0F4BD3F8A03003F4AA
S32D0000DB108053002B14BF01230023DBB2002B10D0094BD3F8A030084A23F48053C2F8A030064806F0FBFA064BF8
S32D0000DB381B68054A23F40053136000BF80BD00BF00C00440901A0020C0F00F4080B400AF124B4FF480725A6356
S32D0000DB60114B5B69104A43F4005353610E4B1B680D4A43F4005313600A4B0C4A1A630C4BD3F888310A4A43F025
S32D0000DB888063C2F88831084B9B68074A43F08063936000BFBD4680BC704700BF00C00440C0F00F4003010A00E4
S32D0000DBB000E100E080B400AF334B00225A70324B98221A70304B9B79DBB203F01003002B14BF01230023DBB284
S32D0000DBD8002B00D0F2E72A4B9B79DBB29B08DBB203F00303022B14BF01230023DBB2002B00D0F0E7224B1822BF
S32D0000DC001A71214B00225A71204B03F580531A461F4B53641C4B54225A711B4B9B79DBB203F02003002B0CBFA0
S32D0000DC2801230023DBB2002B00D0F2E7144B9B79DBB203F04003002B0CBF01230023DBB2002B00D0F2E70E4BF9
S32D0000DC501B78DBB20C4A03F03F03DBB213700A4B9B79DBB29B08DBB203F00303032B14BF01230023DBB2002BCC
S32D0000DC7800D0F0E700231846BD4680BC704700BF00400640007004400000130180B500AF314B03F580539B6B22
S32D0000DCA02F4A43F4785302F580529363FFF752FFFFF780FF2B4B58221A602A4B1B684FF47A7202FB03F3284A6A
S32D0000DCC81360274B1B681A46234B03F580535B6C1B0E03F00F030133B2FBF3F31A46214B1A601D4B03F58053F8
S32D0000DCF0DB6B1B4A43F0225302F58052D363184B03F580531B6B164A43F0006302F580521363174B4FF4807234
S32D0000DD181A61642002F058F8134B5B69124A23F010035361104B00221A600F4B10225A610E4803F07DFA02F054
S32D0000DD407FFD02F0DDFD0C4802F0A4F80B4806F041FA4FF4FA6002F04FF900BF80BD00BF007004405419002034
S32D0000DD68501900205819002000D00340081A00204C190020001B002080B500AFFEF7DFFA00BF80BD80B500AFCC
S32D0000DD90FEF7D9FA00BF80BD80B500AFFEF7D3FA00BF80BD80B500AFFEF7CDFA00BF80BD80B500AFFEF7C7FAC9
S32D0000DDB800BF80BD80B500AFFEF7C1FA00BF80BD80B500AFFEF7BBFA00BF80BD80B500AFFEF7B5FA00BF80BDA3
S32D0000DDE080B500AFFEF7AFFA00BF80BD80B500AFFEF7A9FA00BF80BD80B500AFFEF7A3FA00BF80BD80B500AFC9
S32D0000DE08FEF79DFA00BF80BD80B500AFFEF797FA00BF80BD80B500AFFEF791FA00BF80BD80B500AFFEF78BFA40
S32D0000DE3000BF80BD80B500AFFEF785FA00BF80BD80B500AFFEF77FFA00BF80BD80B500AFFEF779FA00BF80BDDE
S32D0000DE5880B500AFFEF773FA00BF80BD80B500AFFEF76DFA00BF80BD80B500AFFEF767FA00BF80BD80B500AF04
S32D0000DE80FEF761FA00BF80BD80B500AFFEF75BFA00BF80BD80B500AFFEF755FA00BF80BD80B500AFFEF74FFAB8
S32D0000DEA800BF80BD80B500AFFEF749FA00BF80BD80B500AFFEF743FA00BF80BD80B500AFFEF73DFA00BF80BD1A
S32D0000DED080B500AFFEF737FA00BF80BD80B500AFFEF731FA00BF80BD80B500AFFEF72BFA00BF80BD80B500AF40
S32D0000DEF8FEF725FA00BF80BD80B500AFFEF71FFA00BF80BD80B500AFFEF719FA00BF80BD80B500AFFEF713FA30
S32D0000DF2000BF80BD80B500AFFEF70DFA00BF80BD80B500AFFEF707FA00BF80BD80B500AFFEF701FA00BF80BD55
S32D0000DF4880B500AFFEF7FBF900BF80BD80B500AFFEF7F5F900BF80BD80B500AFFEF7EFF900BF80BD80B500AF7E
S32D0000DF70FEF7E9F900BF80BD80B500AFFEF7E3F900BF80BD80B500AFFEF7DDF900BF80BD80B500AFFEF7D7F9AB
S32D0000DF9800BF80BD80B500AFFEF7D1F900BF80BD80B500AFFEF7CBF900BF80BD80B500AFFEF7C5F900BF80BD94
S32D0000DFC080B500AFFEF7BFF900BF80BD80B500AFFEF7B9F900BF80BD80B500AFFEF7B3F900BF80BD80B500AFBA
S32D0000DFE8FEF7ADF900BF80BD80B500AFFEF7A7F900BF80BD80B500AFFEF7A1F900BF80BD80B500AFFEF79BF923
S32D0000E01000BF80BD80B500AFFEF795F900BF80BD80B500AFFEF78FF900BF80BD80B500AFFEF789F900BF80BDCF
S32D0000E03880B500AFFEF783F900BF80BD80B500AFFEF77DF900BF80BD80B500AFFEF777F900BF80BD80B500AFF5
S32D0000E060FEF771F900BF80BD80B500AFFEF76BF900BF80BD80B500AFFEF765F900BF80BD80B500AFFEF75FF99A
S32D0000E08800BF80BD80B500AFFEF759F900BF80BD80B500AFFEF753F900BF80BD80B500AFFEF74DF900BF80BD0B
S32D0000E0B080B500AFFEF747F900BF80BD80B500AFFEF741F900BF80BD80B500AFFEF73BF900BF80BD80B500AF31
S32D0000E0D8FEF735F900BF80BD80B500AFFEF72FF900BF80BD80B500AFFEF729F900BF80BD80B500AFFEF723F912
S32D0000E10000BF80BD80B500AFFEF71DF900BF80BD80B500AFFEF717F900BF80BD80B500AFFEF711F900BF80BD46
S32D0000E12880B500AFFEF70BF900BF80BD80B500AFFEF705F900BF80BD80B500AFFEF7FFF800BF80BD80B500AF6D
S32D0000E150FEF7F9F800BF80BD80B500AFFEF7F3F800BF80BD80B500AFFEF7EDF800BF80BD80B500AFFEF7E7F88D
S32D0000E17800BF80BD80B500AFFEF7E1F800BF80BD80B500AFFEF7DBF800BF80BD80B500AFFEF7D5F800BF80BD85
S32D0000E1A080B584B000AFF8600B467A60FB72FB68FA7A1A71FB6800225A711749786806F0F3FF0346002B02D029
S32D0000E1C8134B7B600AE04FF07E51786806F0D4FF0346002B02D04FF07E537B60786806F08BF909A3D3E9002339
S32D0000E1F006F0DEF902460B461046194606F0BAFC0246FB681A60FB6818461037BD4680BDABAAAAAAAAAA204070
S32D0000E2180000404180B582B000AF78607B685B79002B09D07B6800225A717B6819791E230022034801F064FE68
S32D0000E24000BF0837BD4680BD4C19002080B584B000AF786039603B687F2B02DD7F23FB7308E03B6813F1800F0A
S32D0000E26802DA8023FB7301E03B68FB737B685B79FA7B9A4209D07B68FA7B5A717B681979FA7B1E23034801F03E
S32D0000E2903BFE00BF1037BD4680BD00BF4C190020B0B584B000AF786039603749386806F05DFF0346002B02D02C
S32D0000E2B8334B3B6008E03349386806F071FF0346002B01D02F4B3B60386806F015F904460D467B681B68184656
S32D0000E2E006F00EF94FF00002294B06F08BFA02460B462046294606F05BF902460B461046194606F037FC03466B
S32D0000E3083B604FF00001386806F040FF0346002B10D0386806F0F0F817A3D3E9002306F043F902460B461046AB
S32D0000E330194606F0D7FB0346FB6018E0386806F0DFF84FF00002134B06F032F902460B46104619464FF0000240
S32D0000E3580D4B06F053FA02460B461046194606F0BDFB0346FB60F9687868FFF76BFF00BF1037BD46B0BD00BF86
S32D0000E38052B81E85EB51F43F0000C8C20000C842000059400000604080B483B000AF03460A46FB711346BB71E6
S32D0000E3A8BB79002B03D1134B00221A7002E0114B01221A703823FB710E4B1A78FB791343FB710D4B9B78DBB23F
S32D0000E3D00B4A43F01003DBB29370094B9B78DBB2074A43F02003DBB29370054AFB79137100BF0C37BD4680BC41
S32D0000E3F8704700BF261700200060064080B483B000AF01237B607B68312B04DC00BF7B6801337B60F7E700BFFC
S32D0000E4200C37BD4680BC704780B582B000AF03460A46FB711346BB71134B1B7800211846FFF7AAFF00F024F8DA
S32D0000E448104AFB79137100F01FF80E4ABB79137100F01AF80B4B9B78DBB20A4A23F02003DBB29370074B9B78C6
S32D0000E470DBB2064A23F01003DBB29370FFF7C2FF00BF0837BD4680BD271700200060064080B483B000AF174B7A
S32D0000E4981B78002B24D100237B60154BDB78DBB203F00203002B0CBF01230023DBB2002B0DD07B6842F2107202
S32D0000E4C0934203DD0B4B01221A7004E07B6801337B6000BFE5E7084BDB78DBB2064A43F00203DBB2D37000E0AA
S32D0000E4E800BF0C37BD4680BC704700BF281700200060064080B582B000AF0346FB71FB79184600F05FF800BFA7
S32D0000E5100837BD4680BD80B582B000AF03460A46FB711346BB7100F035F8FB795B00DBB21846FFF7E3FFBB79DB
S32D0000E5381846FFF7DFFF00F037F800BF0837BD4680BD80B500AFFF2000F03CF80346184680BD80B584B000AF03
S32D0000E5600346FB7100F016F8FB795B005BB243F001035BB2DBB21846FFF7C0FFFFF7E5FF0346FB7300F014F88D
S32D0000E588FB7B18461037BD4680BD000080B400AF044B9B68034A43F48013936000BFBD4680BC704740F00F4097
S32D0000E5B080B400AF044B5B68034A43F48013536000BFBD4680BC704740F00F4080B485B000AF0346FB7100235A
S32D0000E5D8BB73164BDB6A03F00043012B0CBF01230023DBB2002B03D0FB7B0133FB73F0E70E4BDB6A0D4A43F02B
S32D0000E6000043D3620B4AFB7953630A4BDB6A03F40033002B0CBF01230023DBB2002B00D0F3E7044B9B6BBB730F
S32D0000E628BB7B18461437BD4680BC704700C00A4080B582B000AF204B03F580531B6B1E4A43F4805302F58052D8
S32D0000E65013631C4B4FF480721A651B4B5B691A4A43F480135361FFF7A3FF164B4FF400725A65144B4FF400727E
S32D0000E6789A65124B4FF40072DA65124B124A1A60104B124ADA6000237B607B68092B06DCFF20FFF72FFF7B68E3
S32D0000E6A001337B60F5E704A1D1E9000101F0BAFC00BF0837BD4680BD9A9999999999B93F0070044000A00440F5
S32D0000E6C840F00F4000C00A40000C00800500003E90B486B000AFF860B9607A60FB68534A93420AD1524B03F513
S32D0000E6F080535B6B504A43F4806302F58052536345E0FB684D4A93420AD14B4B03F580535B6B494A43F400630D
S32D0000E71802F58052536336E0FB68474A93420AD1434B03F580535B6B414A43F4805302F58052536327E0FB68FD
S32D0000E740404A93420AD13C4B03F580535B6B3A4A43F4005302F58052536318E0FB683A4A93420AD1344B03F5C6
S32D0000E76880539B6A324A43F4806302F58052936209E02F4B03F580539B6A2D4A43F4006302F580529362FB68F2
S32D0000E790DB78DBB223F00C03DAB2FB68DA70FB6800229A70BB684FF47A7203FB02F27B681B0192FBF3F39CB28D
S32D0000E7B8FB681B78DBB223F01F03FB75230A9BB2DBB203F01F03DAB2FB7D1343DAB2FB681A70E2B2FB685A705B
S32D0000E7E0BB684FF4FA4203FB02F27B681B0192FBF3F39AB263019BB2D31A9CB2FB689B7ADBB223F01F03FB7523
S32D0000E808E3B203F01F03DAB2FB7D1343DAB2FB689A72FB68DB78DBB243F00C03DAB2FB68DA7000BF1837BD4614
S32D0000E83090BC704700A006400070044000B0064000C0064000D0064000A00E4080B483B000AF78607B681B79B8
S32D0000E858DBB203F02003002B0CBF01230023DBB2002B00D0F2E77B68DB79DBB218460C37BD4680BC704780B4C2
S32D0000E88083B000AF78600B46FB707B681B79DBB25BB2DB43DBB2DB09DBB2002B00D0F4E77B68FA78DA7100BF92
S32D0000E8A80C37BD4680BC704780B487B000AFF860B9607A60FB687B617B685A1E7A60002B14BF01230023DBB25E
S32D0000E8D0002B06D07B695A1C7A61BA68D2B21A70EEE700BF1C37BD4680BC704780B584B000AF786039607B686B
S32D0000E8F81B6BFB60FA683B689A4252D07B681B79002B35D07B6858787B6803F134010123FA6801F0F7F80346F9
S32D0000E920002B14BF01230023DBB2002B01D001233CE07B6800221A717B685A6A7B681B6A1344FA689A4217D29E
S32D0000E9487B68DB78FB72FB7A012B11D97B681B6AFA681344FB607B6858787B6803F134010123FA6801F0CEF8FB
S32D0000E970FB7A013BFB72EAE73B68002B15D07B6858787B6803F1340101233A6800F0DAFF0346002B14BF01231E
S32D0000E9980023DBB2002B01D0012303E07B683A681A63002318461037BD4680BD80B584B000AF786000217868A3
S32D0000E9C0FFF794FF0346FB73FB7B002B40F093807B681B78032B7DD17B685B79002B79D07B6800221A637B6883
S32D0000E9E834334FF4007200211846FFF75DFF7B68552283F832227B68AA2283F833227B68522283F834207B6863
S32D0000EA10522283F835207B68612283F836207B68412283F837207B68722283F818227B68722283F819227B6809
S32D0000EA38412283F81A227B68612283F81B227B681B69DAB27B6883F81C227B681B699BB21B0A9BB2DAB27B6854
S32D0000EA6083F81D227B681B691B0CDAB27B6883F81E227B681B691B0EDAB27B6883F81F227B68DB68DAB27B68C6
S32D0000EA8883F820227B68DB689BB21B0A9BB2DAB27B6883F821227B68DB681B0CDAB27B6883F822227B68DB68F0
S32D0000EAB01B0EDAB27B6883F823227B6858787B6803F134017B685A69012301F01FF87B6800225A717B685B78C9
S32D0000EAD800220021184601F0E1F80346002B14BF01230023DBB2002B01D00123FB73FB7B18461037BD4680BDA1
S32D0000EB0080B582B000AF78600B467B807B68002B08D07B681B78002B04D07B68DB887A889A4201D0092311E040
S32D0000EB287B685B78184601F03BF9034603F00103002B14BF01230023DBB2002B01D0032300E0002318460837B2
S32D0000EB50BD4680BD80B586B000AF78607B681A687B689B8819461046FFF7CAFF0346FB75FB7D002B40F0AC80CE
S32D0000EB787B689B7903F02003002B00F0A5807B689B7903F04003002B1BD07B681B6858787B6803F128017B68C6
S32D0000EBA09A69012300F0B2FF0346002B14BF01230023DBB2002B01D001238AE07B689B7923F04003DAB27B681E
S32D0000EBC89A717B681A687B68DB6919461046FFF789FE0346FB75FB7D002B75D17B681B6A3B613B690B331A783C
S32D0000EBF03B690B3342F02002D2B21A707B68DA683B691C33D2B21A707B68DB689BB21B0A9AB23B691D33D2B231
S32D0000EC181A707B68DB681A0C3B691E33D2B21A707B68DB681A0E3B691F33D2B21A707B681A693B691A33D2B2C8
S32D0000EC401A707B681B699BB21B0A9AB23B691B33D2B21A707B681B691A0C3B691433D2B21A707B681B691B0CE3
S32D0000EC689BB21B0A9AB23B691533D2B21A700023FB603B691633FA68D2B21A70FB689BB21B0A9AB23B691733DC
S32D0000EC90D2B21A70FB681A0C3B691833D2B21A70FB681A0E3B691933D2B21A707B689B7923F02003DAB27B689D
S32D0000ECB89A717B681B6801221A717B681B681846FFF774FE0346FB75FB7D18461837BD4680BD80B584B000AFAD
S32D0000ECE078607868FFF736FF0346FB73FB7B002B02D17B6800221A60FB7B18461037BD4680BD000080B588B0B1
S32D0000ED0800AF7860396080233B610F23FB604FF0FF337B610223FB61FB69B3F5807F23D80123BB61BB69102B7E
S32D0000ED301AD8FB69BA6902FB03F33A6803FB02F27B68D31ABB60BB68002B09DBBB687A699A4205D9BB687B61D9
S32D0000ED58FB693B61BB69FB60BB690133BB61E1E7FB695B00FB61D7E71D4BDB6A1C4A23F00803D3621A4BDB6AE9
S32D0000ED8023F47F2323F47F63BB613B695B081B029AB2FB68013B1B01DBB21A43BB691343114A43F46023D362BE
S32D0000EDA80F4B5B6A03F00803002B0CBF01230023DBB2002B03D00A2001F01AF9F0E7084BDB6A074A43F008032C
S32D0000EDD0D362054B1B6B044A43F48013136300BF2037BD4680BD00BF00100B4080B582B000AF786039607B68A2
S32D0000EDF800221A60414B424ADA62404BDB6A03F08073002B14BF01230023DBB2002B00D0F3E73A4B0022C3F83E
S32D0000EE20C020384B4FF481325A60364B28229A62344B4FF001125A643B689B6833491846FFF760FF2F4B5B6A47
S32D0000EE4803F00303002B14BF01230023DBB2002B00D0F3E72C4B40F243421A602A4B40F243425A60284B4FF4B8
S32D0000EE7088629A60264B40F24342DA60244B40F243421A61224B40F243425A61214B03F580531B6B1F4A43F451
S32D0000EE98003302F580521363184B4FF6FF721A63164B1B4A5A63154BDB6A144A43F00063D362124BDB6A03F05E
S32D0000EEC00063002B14BF01230023DBB2002B00D0F3E70C4B5B6A03F48033002B14BF01230023DBB2002B02D085
S32D0000EEE87B6801221A60054B1B6B044A43F080031363002318460837BD4680BD00100B400080000160CC05001F
S32D0000EF1000D0044000700440B3007F0080B400AF064B5A6A40F207331340002B14BF01230023DBB21846BD46EF
S32D0000EF3880BC704700100B4080B485B000AF7860074B1B6B7A681340FB60FB68002B00D1F6E7FB6818461437BD
S32D0000EF60BD4680BC704700BF00100B4080B584B000AF78607B681B7803F03F03764A52F82330FB60FB68002B92
S32D0000EF8805D17B681B78002B01D00123DCE0714B1B6B704A43F0800313636E4B5B6A03F00103002B14BF012374
S32D0000EFB00023DBB2002B00D0F3E7684A7B685B689360FB6823F44003FB607B685B789B0503F44003FA68134303
S32D0000EFD8FB607B685B78022B03D1FB6843F40013FB607B685B78042B16D1FB6803F44033B3F5003F08D1FB6835
S32D0000F00023F44033FB60FB6843F44033FB6007E0FB6823F44033FB60FB6843F40033FB604E4B5B684D4A9BB2FE
S32D0000F02853607B68DB68002B2AD0FB6803F44033B3F5403F03D0FB6843F40013FB607B681B7A002B03D0FB6814
S32D0000F05043F01003FB607B68DB68012B03D9FB6843F02003FB607B68DB68B3F1FF3F0BD03A4B5A687B68DB685F
S32D0000F0781B04384913434B60FB6843F00203FB60344B00221A60334AFB68D3603248FFF753FF0346012B14BF9B
S32D0000F0A001230023DBB2002B09D02C4B1B6B2B4A43F4702343F001031363012348E0274B1B6B03F08003002B9C
S32D0000F0C814BF01230023DBB2002B07D0214B1B6B204A43F001131363012335E01D4B1B6B03F48033002B14BF89
S32D0000F0F001230023DBB2002B08D0184B1B6B174A43F0011313634FF0FF3321E0FB6803F44033002B15D0114B69
S32D0000F1181A697B681A61FB6803F44033B3F5803F0BD10C4B5A697B685A610A4B9A697B689A61084BDA697B6871
S32D0000F140DA61064B1B6B054A43F001031363002318461037BD4680BD84B8010000100B4001000E0080B592B06D
S32D0000F16800AF7860396000237B643B68BB63994B7B637B6B002B02D140F601235FE3964B3B633B6B002B02D131
S32D0000F19040F60B2357E33B6B1B68FB62FB6A002B02D140F60B234EE37B6841F20932934200F23F837B68B3F5D0
S32D0000F1B8985F08D87B68032B00F01A837B68092B00F0098331E37B68A3F59853013B082B00F22B8301A252F8AB
S32D0000F1E023F000BF09F20000F5F4000051F700000BF5000049F500006FF60000B7F60000F9F5000013F60000BC
S32D0000F2087649786BFFF7EEFD78647B6C002B40F01083002387F84330002387F82B30002387F82A30002387F8F4
S32D0000F2302930002387F84230002387F8283000233B7200237B720023FB6000233B7400237B6107F108031846B9
S32D0000F258FFF788FE0346002B14BF01230023DBB2002B02D001237B64E8E240F24C4000F0BFFE08233B720023C1
S32D0000F2807B724FF4D573FB6000233B7400237B6107F108031846FFF769FEF863FB6B002B09D1BA69FB689A42D6
S32D0000F2A802D001237B64C9E2012387F84230012387F8283097F82830002B00F0A58037233B7200237B72002347
S32D0000F2D0FB6000233B7400237B6107F108031846FFF744FEF863FB6B002B02D001237B64A8E269233B720023A4
S32D0000F2F87B720023FB6000233B7400237B6107F108031846FFF72EFE0346002B14BF01230023DBB2002B02D011
S32D0000F32001237B648EE2BB6903F44013002B6FD00023FB630A2000F05FFEFB6B0133FB6337233B7200237B726D
S32D0000F3480023FB6000233B7400237B6107F108031846FFF707FE0346002B14BF01230023DBB2002B02D00123B0
S32D0000F3707B6428E069233B7200237B7297F84230002B02D0184BFB6002E04FF44013FB6000233B7400237B61DF
S32D0000F39807F108031846FFF7E5FD0346002B14BF01230023DBB2002B02D001237B6406E0BB69002B03DBFB6B7A
S32D0000F3C0632B00D8B6E77B6C002B40F03882FB6B632B0BD9002387F8423019E0401700204419002078B8010016
S32D0000F3E800003040012387F8433097F84230002B0AD0002387F84230BB6903F08043002B02D0012387F842306B
S32D0000F41097F82A30002B02D07B6B07221A6097F82930002B02D07B6B08221A6097F82B30002B02D07B6B0422FD
S32D0000F4381A6097F84330002B09D07B6B02221A6097F84230002B02D07B6B03221A6097F82B30002B0DD097F89E
S32D0000F4604330002B09D07B6B05221A6097F84230002B02D07B6B06221A60924B00221A60904B00225A608F4BF0
S32D0000F48800229A608D4B0022DA608C4B00221A618A4B00225A61FB6A9A68FB6A5B6819461046FFF72BFC854BAF
S32D0000F4B040F243421A60834B40F243425A60814B4FF488629A607F4B40F24342DA607D4B40F243421A617B4B50
S32D0000F4D840F243425A617A4B03F580531B6B784A43F4003302F580521363A7E1B86BFFF739FDF863FB6B002B50
S32D0000F50000F09F8102237B649BE1BB6B002B02D10C237B6496E16D4BDB6A1B0A5B0003F4FF73FB63694BDB6A67
S32D0000F5281B0903F00F035A1CFB6B02FB03F3FB63FB6A9A68FB6BB2FBF3F2BB6B1A607DE1BB6B002B02D10C23AF
S32D0000F5507B6477E1BB6B1B68002B02D10C237B6470E1FFF7DBFC0346002B0CBF01230023DBB2002B3CD0534B9B
S32D0000F57800221A60514B00225A60504B00229A604E4B0022DA604D4B00221A614B4B00225A61FB6A9A68BB6B70
S32D0000F5A01B6819461046FFF7ADFB464B40F243421A60444B40F243425A60424B4FF488629A60404B40F24342AF
S32D0000F5C8DA603E4B40F243421A613C4B40F243425A613B4B03F580531B6B394A43F4003302F58052136329E11A
S32D0000F5F040F60A237B6425E1BB6B002B02D10C237B641FE1314B5B68C3F30C02BB6B1A6018E1BB6B002B02D1B3
S32D0000F6180C237B6412E1FFF77DFC0346002B0CBF01230023DBB2002B19D0BB6B1B68B3F5805F02D30C237B641A
S32D0000F64000E1224B5B68214A23F4FF5323F01F0353601E4B5A68BB6B1B68C3F30C031B4913434B60EEE040F6CD
S32D0000F6680A237B64EAE0BB6B002B02D10C237B64E4E0144B9B6A5B0803F00303FB63FB6B002B03D1BB6B0022DD
S32D0000F6901A60D7E0FB6B012B03D1BB6B01221A60D0E0FB6B102B03D1BB6B02221A60C9E005237B64C6E0BB6B8D
S32D0000F6B8002B09D10C237B64C0E000BF00D004400070044000100B40FFF724FC0346002B0CBF01230023DBB266
S32D0000F6E0002B31D0BB6B1B68002B0AD1584B9B6A574A23F006039362554B554A9B6A9362A0E0BB6B1B68012B39
S32D0000F7080CD1514B9B6A504A23F0060393624E4B9B6A4D4A43F0020393628FE0BB6B1B68022B0AD1484B9B6A90
S32D0000F730474A23F006039362454B454A9B6A936280E005237B647DE040F60A237B6479E0BB6B002B02D10C233E
S32D0000F7587B6473E03C4BDB6A3B4A43F00063D362394BDB6A03F00063002B14BF01230023DBB2002B00D0F3E76F
S32D0000F780334B1B6B03F08003002B14BF01230023DBB2002B08D02E4B1B6B2D4A43F0800313637B6B00221A60E8
S32D0000F7A8294B5B6A03F48033002B14BF01230023DBB2002B07D07B6B1B68002B06D17B6B01221A6002E07B6BC6
S32D0000F7D000221A607B6B1A68BB6B1A6032E0BB6B1C221A60BB6B043304221A60BB6B08334FF41E721A6025E0C7
S32D0000F7F80220FFF7A1FB144B1B6B03F4E003002B14BF01230023DBB2002B07D00E4B1B6B0D4A43F4E0031363D6
S32D0000F82004237B640A4B1B6B094A43F03203136308E040F609237B6404E000BF02E000BF00E000BF7B6C184657
S32D0000F8484837BD4680BD00BF00100B4080B489B000AF786039607B687B61364B3B613B69002B01D100235FE04D
S32D0000F8703B691B68022B0BD03B691B68032B07D03B691B68072B03D03B691B68082B0BD12B4B5B6A03F0040378
S32D0000F898002B14BF01230023DBB2002B00D0F3E73B68FB61FB69002B3DD0FB69B3F5007F28BF4FF40073FB607D
S32D0000F8C0FB6803339B08BB61BB69002B2AD01C4B1B6B03F4E003002B14BF01230023DBB2002B09D0164B1B6BF5
S32D0000F8E8154A43F4E00343F02003136300231BE0114B5B6A03F40063002B0CBF01230023DBB2002B00D0F3E775
S32D0000F9100B497B691A1D7A610A6A1A60BB69013BBB61D1E7FA69FB68D31AFB61BEE7012318462437BD4680BC8D
S32D0000F938704700BF4017002000100B4080B58EB000AFB9607A601A460346FB731346BB73414B7B63FB7B002B9B
S32D0000F96002D1BB7B002B01D1042375E03D4B1B78DBB203F00103002B14BF01230023DBB2002B01D0032367E01D
S32D0000F988BB68002B01D1002362E07B6B1B7B002B02D17B685B027B60BB7B012B28D111233B7500237B757B6802
S32D0000F9B0BB6101233B77BB7B3B6207F11403194641F20230FFF7CEFB0346002B0CBF01230023DBB2002B38D08C
S32D0000F9D84FF40071B868FFF739FF0346002B14BF01230023DBB2002B2BD00023BB7328E012233B7500237B756D
S32D0000FA007B68BB6101233B77BB7B3B6207F11403194641F20230FFF7A5FB0346002B0CBF01230023DBB2002B89
S32D0000FA280FD0BB7B5B021946B868FFF70FFF0346002B14BF01230023DBB2002B01D00023BB73BB7B002B01D021
S32D0000FA50012300E0002300BF18463837BD4680BD2C1700201900002080B487B000AF786039607B68FB603B688D
S32D0000FA787B617B69002B3DD07B69B3F5007F28BF4FF400733B617A693B69D31A7B613B6903339B083B613B6917
S32D0000FAA0002BEAD0184B1B6B03F4E003002B14BF01230023DBB2002B0AD0134B1B6B124A43F4E00343F0100319
S32D0000FAC813634FF0FF3316E00D4B5B6A03F48063002B0CBF01230023DBB2002B00D0F3E7FB681A1DFA60064A59
S32D0000FAF01B6813623B69013B3B61D0E7012318461C37BD4680BC704700100B4080B58EB000AFB9607A601A4622
S32D0000FB180346FB731346BB735D4B7B63FB7B002B02D1BB7B002B01D10423ADE0594B1B78DBB203F00103002BBA
S32D0000FB4014BF01230023DBB2002B01D003239FE0524B1B78DBB203F00403002B14BF01230023DBB2002B01D0CA
S32D0000FB68022391E0BB68002B01D100238CE07B6B1B7B002B02D17B685B027B60BB7B012B28D118233B7500232C
S32D0000FB907B757B68BB6100233B77BB7B3B6207F11403194641F20230FFF7DCFA0346002B0CBF01230023DBB2FE
S32D0000FBB8002B38D04FF40071B868FFF751FF0346002B14BF01230023DBB2002B2BD00023BB7328E019233B754C
S32D0000FBE000237B757B68BB6100233B77BB7B3B6207F11403194641F20230FFF7B3FA0346002B0CBF0123002341
S32D0000FC08DBB2002B0FD0BB7B5B021946B868FFF727FF0346002B14BF01230023DBB2002B01D00023BB730D2371
S32D0000FC303B7500237B757B6B1B69BB6100233B7700233B6207F11403194641F20230FFF789FA0346002B14BF35
S32D0000FC5801230023DBB2002B01D0012314E07A6A0D4B1340002B01D001230DE07B6A03F4F853B3F5106F00D0DC
S32D0000FC80D5E7BB7B002B01D0012300E0002300BF18463837BD4680BD2C170020190000200880D9FF80B58CB008
S32D0000FCA800AF03463A60FB710B46BB713A4BBB62FB79002B01D0042369E0012387F82F30364B1B78DBB203F09B
S32D0000FCD00103002B14BF01230023DBB2002B01D0032358E0BB79032B50D801A252F823F001FD000009FD000048
S32D0000FCF819FD000029FD0000002387F82F3044E0BB6A9A683B681A60002387F82F303CE03B684FF400721A802A
S32D0000FD20002387F82F3034E009233B7200237B72BB6A1B69FB6000233B7400237B6107F10803194641F202301B
S32D0000FD48FFF70CFA0346002B14BF01230023DBB2002B01D001231AE07B6A03F44003002B0CD13B6A9B0C03F0F6
S32D0000FD707F035A1C7B6A1B0A03F00303013B9A403B681A60002387F82F3002E0042387F82F3097F82F30184603
S32D0000FD983037BD4680BD00BF2C1700201900002080B483B000AF0346FB71FB79002B01D0012302E0034B1B7819
S32D0000FDC0DBB218460C37BD4680BC70471900002080B483B000AF7860164B03F580539B6B144A43F0010302F50C
S32D0000FDE880529363124A7B689360114B05225A600F4B1B680E4A43F0010313600C4B1B6803F08003002B0CBF91
S32D0000FE1001230023DBB2002B00D0F3E7064B1B68054A23F00103136000BF0C37BD4680BC704700BF0070044003
S32D0000FE380000044080B582B000AF786039607B68012B07D13B684FF6FF72934202D1034800F00EF800BF0837AA
S32D0000FE60BD4680BD4C19002080B500AF4FF6FF710120FFF7E3FF80BD80B483B000AF78607B6800221A707B6880
S32D0000FE8818460C37BD4680BC7047000080B582B000AF78607B681B7883F00103DBB2002B21D0134B03F5805308
S32D0000FEB01A464FF400639362104B4FF440721A620E4B4FF440725A620D4B1B68DA0F13445B104FF46142194688
S32D0000FED80A48FEF7FDFB642000F08AF87B6801221A70012300E0002318460837BD4680BD0070044000D004406B
S32D0000FF005019002000B00E4080B582B000AF7860084611461A460346FB700B46BB7013467B707F210E48FEF7FA
S32D0000FF28AAFC08210C48FEF7A6FCFB7819460A48FEF7A1FCBB7819460748FEF79CFC7B7819460548FEF797FCA6
S32D0000FF50FF210348FEF793FC00BF0837BD4680BD00B00E4080B487B000AFF860B9607A60FB681F4AA2FB032364
S32D0000FF789B09BA6813447B61FB681B4AA2FB031292094FF47A7101FB02F29B1AFB60FB68DB03154AA2FB0323BC
S32D0000FFA09B097A6813443B613B69DB0B7A6913447B613B69C3F30E033B610E4B1B687A699A4209D80B4B1B68BE
S32D0000FFC87A699A4206D1094B5B683A699A4201D9012300E00023002B00D0EAE700BF1C37BD4680BC704700BF4B
S32D0000FFF0D34D621000D0034080B584B000AF7860074B1B68FB60064B5B68BB607B68BA68F9681846FFF7A6FF90
S32D0001001800BF1037BD4680BD00D0034080B584B000AFC7E900010E4B1B68FB600C4B5B68BB604FF000020B4B94
S32D00010040D7E9000104F0B4FA02460B461046194604F070FD0346BA68F9681846FFF782FF00BF1037BD4680BD98
S32D0001006800D0034000408F4080B483B000AF0B4B1B684FF47A7202FB03F37B60074B5B684FF47A7202FB03F324
S32D00010090DB0B7A6813447B607B6818460C37BD4680BC704700D0034080B584B000AF78600B46FB700B23FB7372
S32D000100B8FA7BFB781946786800F094F87B6818461037BD4680BD000080B485B000AF78607B68103B002B00DA8B
S32D000100E01F335B11FB60FB68022B53D0FB68022B75DCFB68002B03D0FB68012B25D06EE0394BD3F880217B683E
S32D00010108103B594203F01F0301F01F0158BF4B42012101FA03F332491343C1F88031304B1A687B68103B594204
S32D0001013003F01F0301F01F0158BF4B42012101FA03F3294913430B6049E0274BD3F884217B68103B594203F0C9
S32D000101581F0301F01F0158BF4B42012101FA03F31F491343C1F884311D4B5A687B68103B594203F01F0301F069
S32D000101801F0158BF4B42012101FA03F3164913434B6024E0144BD3F888217B68103B594203F01F0301F01F0153
S32D000101A858BF4B42012101FA03F30D491343C1F888310B4B9A687B68103B594203F01F0301F01F0158BF4B4268
S32D000101D0012101FA03F3044913438B6000BF00BF1437BD4680BC704700E100E080B584B000AF78600B46FB7033
S32D000101F81346BB707B68FA781A70BB78FB737B681B781A46574B9B5C042B00F2A68001A252F823F031020100EA
S32D000102207D020100C90201006103010015030100FB7B1B0403F470234D497A68127810464C4A52F8202043F417
S32D00010248897343F0010341F82230494B5A697B681B781946454B53F8213003F01F03012101FA03F3DB434249A0
S32D0001027013404B616720FFF72BFF72E0FB7B1B0403F470233D497A6812781046394A52F8202043F4897343F08D
S32D00010298010341F82230384B5A697B681B781946324B53F8213003F01F03012101FA03F3DB43314913404B61B5
S32D000102C06820FFF705FF4CE0FB7B1B0403F470232C497A6812781046264A52F8202043F4897343F0010341F86E
S32D000102E82230274B5A697B681B7819461F4B53F8213003F01F03012101FA03F3DB43204913404B616920FFF758
S32D00010310DFFE26E0FB7B1B0403F470231B497A6812781046134A52F8202043F4897343F0010341F82230164B59
S32D000103385A697B681B7819460C4B53F8213003F01F03012101FA03F3DB430F4913404B616B20FFF7B9FE00E056
S32D0001036000BF00BF1037BD4680BD00BF84B9010000900440C8B9010000F00F4000A0044040F00F4000B0044080
S32D0001038880F00F4000D0044000F10F40B0B48BB000AF224B3C1D1D460FCD0FC495E80F0084E80F0000237B6206
S32D000103B07B6A072B30DC1C4BD3F8A0207B6A9B0028333B4453F8243C012101FA03F31340002B14BF0123002359
S32D000103D8DBB2002B18D0134A7B6A52F823305A1C10497B6A41F823200D4BD3F8A0207B6A9B0028333B4453F8BF
S32D00010400243C012101FA03F307491340C1F8A0307B6A01337B62CBE700BF2C37BD46B0BC704700BFCCBA0100F8
S32D0001042800A004407C190020B0B489B000AF224B3C1D1D460FCD0FC495E8030084E803000023FB61FB69052BE6
S32D0001045030DC1C4BD3F8A020FB699B0020333B4453F81C3C012101FA03F31340002B14BF01230023DBB2002BA8
S32D0001047818D0FB690833124A52F823200132104941F823200D4BD3F8A020FB699B0020333B4453F81C3C012164
S32D000104A001FA03F307491340C1F8A030FB690133FB61CBE700BF2437BD46B0BC704700BFECBA010000B00440D0
S32D000104C87C190020B0B48DB000AF234B3C461D460FCD0FC40FCD0FC495E8070084E807000023FB62FB6A0A2B3E
S32D000104F030DC1C4BD3F8A020FB6A9B0030333B4453F8303C012101FA03F31340002B14BF01230023DBB2002BE3
S32D0001051818D0FB6A0E33124A52F823200132104941F823200D4BD3F8A020FB6A9B0030333B4453F8303C012197
S32D0001054001FA03F307491340C1F8A030FB6A0133FB62CBE700BF3437BD46B0BC704700BF04BB01000090044024
S32D000105687C190020B0B487B000AF214B3C461D460FCD0FC42B68236000237B617B69042B30DC1C4BD3F8A0203F
S32D000105907B699B0018333B4453F8183C012101FA03F31340002B14BF01230023DBB2002B18D07B691933124A7D
S32D000105B852F823200132104941F823200D4BD3F8A0207B699B0018333B4453F8183C012101FA03F307491340FE
S32D000105E0C1F8A0307B6901337B61CBE700BF1C37BD46B0BC704700BF30BB010000D004407C19002080B483B0AA
S32D0001060800AF78607B681B781A46044B53F8223018460C37BD4680BC704700BF7C19002080B483B000AF786081
S32D000106307B681B781946044B002243F8212000BF0C37BD4680BC70477C19002080B483B000AF78600B46FB7082
S32D000106587B68FA781A707B6818460C37BD4680BC704700000000000080B586B000AF78607B681B781A463E4BC9
S32D0001068053F822303B617B681B781A463B4B9B5CFB733B69DBB203F01F03DAB2384B1A723B69DBB203F01F032A
S32D000106A8DAB2354B5A72354B1022C3F88820FB7B002B13D13049324800F05AFA304B1B6803F08003802B14BF88
S32D000106D001230023DBB2002B00D0F3E72A4B1B697B6112E02649294800F046FA274B1B6803F08003802B14BF92
S32D000106F801230023DBB2002B00D0F3E7214B1B697B611E4BD3F888311C4A43F01003C2F888311A4B9B68194A87
S32D0001072043F0100393607B699BB2184603F0C6FE0DA3D3E9002303F03BFF02460B46104619460BA3D3E9002394
S32D0001074804F05CF802460B461046194604F00EFA0346BB60BB6818461837BD4680BD00BFA4703D0AD7A30A409E
S32D0001077000000000E0FFEF4048BA0100A4B901005C19002000E100E000B0034000B00B4080B586B000AF7860B5
S32D000107987B681B781A46234B53F822303B617B681B781A46204B9B5CFB733B69DBB203F01F03DAB21D4B1A7249
S32D000107C03B69DBB203F01F03DAB21A4B5A72FB7B002B13D11749184800F0CEF9164B1B6803F08003802B14BF33
S32D000107E801230023DBB2002B00D0F3E7104B1B697B6112E00D490F4800F0BAF90D4B1B6803F08003802B14BF6D
S32D0001081001230023DBB2002B00D0F3E7074B1B697B617B6918461837BD4680BD48BA0100A4B901006C19002087
S32D0001083800B0034000B00B4098B500AF204B5C221A701F4B10225A701D4B41F234225A801B4B45F278629A8072
S32D00010860194B10229A71184B0722DA71164B4FF4C022DA60144B1F221A72134B1F225A721149124800F078F985
S32D000108880F49114800F074F90F4800F0D2F80D4800F0CFF80A490C4800F06AF90849094800F066F9094A064B87
S32D000108B014460FCB84E80F00064B5C221A70054B0422DA7100BF98BD5C19002000B0034000B00B406C19002014
S32D000108D880B500AF064B1B680133054A136000F03DF8044B0122C3F80C2100BF80BD00BF001A0020007003401C
S32D0001090080B500AF0C4B01221A600C4800F01AF8094B0322C3F80821094BD3F88831084A43F01003C2F888315A
S32D00010928054B9B68044A43F01003936000BF80BD00700340A086010000E100E080B483B000AF7860044A7B6810
S32D00010950C2F8003100BF0C37BD4680BC704700BF0070034080B584B000AF174B1B68FB60FB68002B24D0FB68E6
S32D000109785B78FB71FB689B68184600F023F80346BB71BB79002B13D0FB685B68012B0FDDFB689B681B69BB6048
S32D000109A0BB68002B08D0BB685B685A1CBB685A60BB681B69BB60F3E7FB68DB68FB60D7E700BF1037BD4680BD28
S32D000109C8FC19002080B584B000AF78607868FFF7DBFEF8607B689B695B78FB72FB7A002B0FD17B68DB68FA68A5
S32D000109F09A420ADD7B689B6901225A707B685B685A1C7B685A60012313E0FB7A012B0FD17B689B68FA689A42CC
S32D00010A180ADA7B689B6900225A707B685B685A1C7B685A60012300E0002318461037BD4680BD80B485B000AF1B
S32D00010A4078607B681B6A23F040027B681A627B685B6A23F00B027B685A627B685B6A43F007027B685A627B68C6
S32D00010A685B6A43F080027B685A627B681B6803F08003002B0CBF01230023DBB2002B00D0F3E77B685B6A03F030
S32D00010A904003402B0CBF01230023DBB2002B01D0012364E00023FB817B68DB6CFB817B689B6C9AB2FB89134430
S32D00010AB8FB817B685B6C9AB2FB891344FB817B681B6C9AB2FB891344FB817B68DB6B9AB2FB891344FB817B688A
S32D00010AE09B6B9AB2FB891344FB81FB895B08FB81FB896FEA43436FEA5343FB81FA897B68DA620023FB817B68E9
S32D00010B08DB6EFB817B689B6E9AB2FB891344FB817B685B6E9AB2FB891344FB817B681B6E9AB2FB891344FB810C
S32D00010B307B68DB6D9AB2FB891344FB817B689B6D9AB2FB891344FB81FB895B08FB81FB896FEA43436FEA534385
S32D00010B58FB81FA897B681A637B685B6A23F080027B685A62002318461437BD4680BC704780B483B000AF786083
S32D00010B8039603B681B781A467B689A603B685B781A467B68DA603B685B881A467B689A613B689B881A467B687A
S32D00010BA8DA613B689B791A467B681A623B68DB791A467B685A623B68DA687B681A653B681B7A1A467B681A603B
S32D00010BD03B685B7A1A467B685A6000BF0C37BD4680BC704780B483B000AF78607B6818460C37BD4680BC704721
S32D00010BF880B582B000AF786039607B68012B07D13B684FF6FF72934202D10348FFF7E6FF00BF0837BD4680BDFB
S32D00010C20041A002080B500AF4FF6FF710120FFF7E3FF80BD80B483B000AF78600B46FB707B68FA781A707B682C
S32D00010C484FF4FA725A807B6840F6C4129A807B68034A9A607B6818460C37BD4680BC7047000080BF80B483B0A1
S32D00010C7000AF786039603B68B3F5FA7F04DB3B6840F6C412934204DD7B684FF4FA725A8004E03B689AB27B680B
S32D00010C985A8000BF00BF0C37BD4680BC704780B483B000AF786039603B68B3F5FA7F04DB3B6840F6C4129342EE
S32D00010CC004DD7B6840F6C4129A8004E03B689AB27B689A8000BF00BF0C37BD4680BC70472DE9904385B000AFC7
S32D00010CE8786039604FF00001386804F03BFA0346002B02D04FF000033B603249386804F04FFA0346002B01D0A3
S32D00010D102E4B3B607B689B681946386804F01CFA0346002B00D04BE07B683A689A607B685C887B689B881A4696
S32D00010D387B685B88D31A184603F0CCFB4FF00002214B03F05BFD02460B4690469946386803F0D2FB02460B4682
S32D00010D604046494603F024FC02460B461046194603F0E0FE03469BB22344FB81FB897B73FB891B0A9BB23B738E
S32D00010D887F211248FDF777FD05211048FDF773FD7B681B7819460D48FDF76DFD3B7B19460A48FDF768FD7B7BBA
S32D00010DB019460848FDF763FDFF210648FDF75FFD00BF1437BD46BDE8908300BF000034430080664000B00E4034
S32D00010DD880B582B000AF7860B84B4FF48072DA60B74B4FF480729A64B54B4FF480721A64B34B4FF480725A64B3
S32D00010E00B14B4FF48072DA60B04B5B69AF4A43F008035361AE4B5B69AD4A43F480235361AB4B5B69AA4A43F487
S32D00010E2880335361A84B5B69A74A43F400335361A54B1B68A44A43F008031360A24B5B69A14A43F008035361CE
S32D00010E509E4B1B689D4A43F0080313609A4B4FF480725A62984B4FF480721A62954B4FF480721A61934B4FF454
S32D00010E7880725A61914B4FF480729A618F4B4FF48072DA618D4B4FF480721A638B4B4FF480725A63894B4FF4DF
S32D00010EA080729A63874B4FF48072DA63854B4FF480721A64834B4FF480725A64814B4FF480729A647F4B4FF4A0
S32D00010EC88072DA64814B4FF480721A607F4B4FF480729A607D4B4FF48072DA607B4B4FF480721A61784B5B6923
S32D00010EF0774A43F440735361744B5B69734A43F47F2343F0F0035361734B5B69724A43F01D035361E221786859
S32D00010F1800F0C2FD1D21786800F064FE0221786800F060FE0421786800F05CFEE021786800F0B2FD0121786869
S32D00010F4000F054FE6420FFF757F8E021786800F0A7FD0321786800F049FE0121786800F09FFD0120FFF748F8E2
S32D00010F68E621786800F098FD0121786800F03AFEA021786800F036FEFF21786800F032FEB021786800F088FDB9
S32D00010F901C21786800F02AFE0F21786800F026FE0121786800F022FE3F21786800F01EFE0021786800F01AFE72
S32D00010FB8EF21786800F016FE0021786800F012FEB421786800F068FD0121786800F00AFE9921786800F006FE83
S32D00010FE00021786800F002FE4521786800F0FEFD0221786800F0FAFD0021786800F0F6FD0021786800F0F2FD12
S32D000110080021786800F0EEFDB621786800F044FD0121786800F0E6FD0921786800F0E2FD0021786800F0DEFD7B
S32D000110300E21786800F0DAFD0221786800F0D6FD0021786800F0D2FD0021786800F0CEFDBA21786800F024FDAD
S32D000110580F21786800F0C6FD6420FEF7C9FF3A21786800F019FD6021786800F0BBFD2A21786800F011FD0021D1
S32D00011080786800F0B3FD0021786800F0AFFD0121786800F0ABFD3F21786800F0A7FD2B21786800F0FDFC002180
S32D000110A8786800F09FFD0021786800F09BFD0021786800F097FDEF2178680BE000B0044000A0044080F00F402D
S32D000110D040F00F4000C00440C0F00F4000F086FD3621786800F0DCFC0021786800F07EFDF021786800F0D4FCE0
S32D000110F80421786800F076FDB821786800F0CCFC0F21786800F06EFD0121786800F06AFD314B1B68304A43F080
S32D00011120080313606420FEF767FF3621786800F0B7FC0021786800F059FDF021786800F0AFFC0421786800F0A1
S32D0001114851FD0121786800F0BCF91E226F21786800F082F8AF225621786800F0DBF80021786800F00AFA012365
S32D0001117001221C49786800F02BFA2921786800F08FFC6420FEF738FFBE21786800F088FC0E21786800F02AFD25
S32D00011198F021786800F026FD0121786800F022FD0021786800F01EFD0021786800F01AFD0F21786800F016FDEC
S32D000111C0786800F028FA0121786800F0DAF90021786800F0AFF900BF0837BD4680BD00BF40F00F4044BB010034
S32D000111E880B582B000AF78607B680022DA617B6801221A627B680E225A607B681A229A607B6800225A617B689F
S32D0001121000229A617B684FF4A072DA607B68F0221A617B6800221A70786801F035FA7B6818460837BD4680BD61
S32D0001123880B582B000AF7860064B1B78002B05D1044B01221A707868FFF7C2FD00BF0837BD4680BD4C1A00205F
S32D0001126080B58AB002AFF860B9607A607E23009362237A68B968F86800F0C9FE40F24E733B610023FB61FA69B0
S32D000112883B699A4240DA0023BB61214AFB6913441B781A46BB69934232DAFB6901331C4AD35C002B06D1FF23EF
S32D000112B0FB75FF23BB75FF237B7512E0FB690133154AD35C012B06D1D423FB750023BB7526237B7505E0B52370
S32D000112D8FB75BA23BB75B0237B757B7DBA7DF97DF86800F0C9F80246FB68DA61F86801F0CFF9F86801F008F9A0
S32D00011300BB690133BB61C4E7FB690233FB61BAE700BF2037BD4680BD1C00002080B58AB002AFF860B9607A600C
S32D000113282723009395237A68B968F86800F06BFE40F2E6333B610023FB61FA693B699A4240DA0023BB61214A38
S32D00011350FB6913441B781A46BB69934232DAFB6901331C4AD35C002B06D1FF23FB75FF23BB75FF237B7512E0A4
S32D00011378FB690133154AD35C012B06D10023FB750023BB7500237B7505E0D423FB750023BB7526237B757B7D54
S32D000113A0BA7DF97DF86800F06BF80246FB68DA61F86801F071F9F86801F0AAF8BB690133BB61C4E7FB69023372
S32D000113C8FB61BAE700BF2037BD4680BD6C07002080B485B000AF78600B46FB70FB78062B29D801A252F823F0BF
S32D000113F0151401000D1401001B140100231401002B14010031140100391401006FF07F43FB6014E00023FB6058
S32D0001141811E04FF47F03FB600DE04FF47F43FB6009E0FF23FB6006E04FF41903FB6002E0044BFB6000BFFB6893
S32D0001144018461437BD4680BC704700BF9999990080B584B000AF786039603B681B0CFB733B681B0ABB733B68FA
S32D000114687B737B7BBA7BF97B786800F005F8034618461037BD4680BD80B487B000AF7860084611461A4603468D
S32D00011490FB700B46BB7013467B70FB789B08DBB27B61BB789B08DBB23B617B789B08DBB2FB607B691A033B6961
S32D000114B89B011A43FB68134318461C37BD4680BC704780B582B000AF78600B46FB70FB7819467868FFF77CFFDF
S32D000114E003461946786800F004F800BF0837BD4680BD80B582B000AF7860396039687868FFF7A6FF02467B685D
S32D000115081A62786801F0C4F8786800F025FC00BF0837BD4680BD80B582B000AF7860786800F01AFC00BF0837AA
S32D00011530BD4680BD80B582B000AF78600B46FB70FB7819467868FFF747FF03461946786800F004F800BF083742
S32D00011558BD4680BD80B582B000AF7860396039687868FFF771FF02467B681A62786801F08FF800BF0837BD46B6
S32D0001158080BD80B582B000AF78600B46FB70FB7819467868FFF720FF03461946786800F004F800BF0837BD4619
S32D000115A880BD80B582B000AF7860396039687868FFF74AFF02467B68DA61786801F068F800BF0837BD4680BDBB
S32D000115D080B586B000AFF860B9607A603B6000237B617B69BA6813441B78002B0FD07B69BA6813441B783A6861
S32D000115F87968F86800F046FE7B680C337B607B6901337B61E9E700BF1837BD4680BD80B582B000AF7860FDF75E
S32D000116200BF867210120FCF776FF00210220FCF772FFA0210320FCF76EFF50210420FCF76AFF20210520FCF752
S32D0001164866FF20210620FCF762FF77210720FCF75EFF00210820FCF75AFF00210920FCF756FF00210A20FCF7DF
S32D0001167052FF04210B20FCF74EFF7B684FF0FF32DA637B684FF0FF321A6400BF0837BD4680BD000000000000CB
S32D0001169880B586B000AFF860B9607A600020FCF758FF0346FB75FB7D03F00203002B00F0CE80FCF76BFFE02065
S32D000116C0FCF71CFF0220FEF797FCFCF771FF0120FEF792FCFCF75EFFA520FCF70FFF0120FEF78AFCFCF731FF67
S32D000116E803469BB21B02BB82FCF72BFF03469AB2BB8A1343BB82FCF724FF03469BB21B027B82FCF71EFF03463A
S32D000117109AB27B8A13437B82BB8A1B09BB827B8A1B097B82FCF744FFFB68DB6BB3F1FF3F34D1FB681B6CB3F1E6
S32D00011738FF3F2FD1BA8AFB68DA637A8AFB681A647B8AC3F57F630F337B82BB8A184602F0C1FE49A3D3E900237E
S32D0001176002F026FF02460B461046194603F002FA0246BB681A607B8A184602F0AFFE42A3D3E9002302F014FF56
S32D0001178802460B461046194603F0F0F902467B681A605AE0FB68DA6BBB8AD31A1946F86800F074F80346632B5D
S32D000117B00CDCFB681A6C7B8AD31A1946F86800F069F80346632B01DC012300E00023002B2FD0BA8AFB68DA634E
S32D000117D87A8AFB681A647B8AC3F57F630F337B82BB8A184602F076FE23A3D3E9002302F0DBFE02460B461046B7
S32D00011800194603F0B7F90246BB681A607B8A184602F064FE1CA3D3E9002302F0C9FE02460B461046194603F083
S32D00011828A5F902467B681A600FE0BB68164A1A607B68154A1A60FB684FF0FF32DA63FB684FF0FF321A64002322
S32D0001185010E001230EE0BB680D4A1A607B680C4A1A60FB684FF0FF32DA63FB684FF0FF321A640023184618378F
S32D00011878BD4680BDAFF30080144001144001B43F1EE0011EE001AE3F000080BF80B483B000AF786039603B68EE
S32D000118A0002B02DA3B685B423B603B6818460C37BD4680BC704780B584B000AF786039600023FB60786800F026
S32D000118C80EFBFB683A6813441B78002B12D07B6859697B689869FB683A6813441B780246786800F0B5FC7868CB
S32D000118F000F00DFBFB680133FB60E6E700BF1037BD4680BD80B592B000AF786039604FF00001386803F03EFC28
S32D000119180346002B1FD0386803F04CFC03467B64786C03F02DFA03461946386803F072F903461F49184603F094
S32D0001194077FA0346184603F039FC03463B6407F10C003B6C7A6C194904F0C2FC22E03B6883F000433B60386815
S32D0001196803F028FC03467B64786C03F009FA03461946386803F04EF903460D49184603F053FA0346184603F0DE
S32D0001199015FC03463B6407F10C003B6C7A6C084904F09EFC07F10C0319467868FFF783FF00BF4837BD4680BD83
S32D000119B800007A4460BB010054BB010080B584B000AFF860C7E90023D7E9000103F0CEF803461946F868FFF75B
S32D000119E091FF00BF1037BD4680BD000080B582B000AF78600B46FB70FB78002B04D006497868FFF758FF03E087
S32D00011A0804497868FFF753FF00BF0837BD4680BD68BB010070BB010080B582B000AF78600B46FB70786800F032
S32D00011A305AFA7B6859697B689A69FB78786800F00BFC786800F063FA00BF0837BD4680BD80B582B000AF786005
S32D00011A583960786800F043FA39687868FFF727FF786800F027FA00BF0837BD4680BD80B582B000AF78600B46AE
S32D00011A80FB70786800F02FFAFB7819467868FFF7C7FF786800F012FA00BF0837BD4680BD80B483B000AF78605D
S32D00011AA80B46FB704D4B1B684C4A23F0080313604B4B1B684A4A23F480231360484B1B68474A43F48033136033
S32D00011AD0454B1B68444A23F440731360414B1B68404A23F4435323F0300313603E4B1A68FB785B0203F40073C5
S32D00011AF83B4913430B603A4B1A68FB785B101B0203F48073364913430B60344B1A68FB789B101B0103F010030D
S32D00011B20304913430B602F4B1A68FB78DB105B0103F020032B4913430B602A4B1A68FB781B119B0103F04003F3
S32D00011B48264913430B60254B1A68FB785B11DB01DBB2224913430B60204B1A68FB789B111B0303F480531D497E
S32D00011B7013430B601B4B1A6897F90330DB115BB25B0303F40053174913430B60164B1B68154A23F40033136018
S32D00011B98134B1B68124A43F4003313600F4B1B680E4A43F0080313600D4B1B680C4A43F440731360094B1B68B9
S32D00011BC0084A43F4435343F030031360064B1B68054A43F48023136000BF0C37BD4680BC704700BF80F00F4018
S32D00011BE840F00F4080B483B000AF78600B46FB70464B1B68454A23F008031360444B1B68434A43F48033136075
S32D00011C10414B1B68404A43F4802313603E4B1B683D4A23F4407313603A4B1B68394A23F4435323F030031360FE
S32D00011C38374B1A68FB785B0203F40073344913430B60334B1A68FB785B101B0203F480732F4913430B602D4B6B
S32D00011C601A68FB789B101B0103F01003294913430B60284B1A68FB78DB105B0103F02003244913430B60234BFF
S32D00011C881A68FB781B119B0103F040031F4913430B601E4B1A68FB785B11DB01DBB21B4913430B60194B1A68D3
S32D00011CB0FB789B111B0303F48053164913430B60144B1A6897F90330DB115BB25B0303F40053104913430B607F
S32D00011CD80F4B1B680E4A23F4003313600C4B1B680B4A43F400331360084B1B68074A43F008031360064B1B6833
S32D00011D00054A23F48023136000BF0C37BD4680BC704700BF80F00F4040F00F4080B586B000AF786000237B6152
S32D00011D2807F10C0207F1100319467868FFF7B0FC0346002B05D07B69B3F57A7F01DA012300E00023002B03D0CC
S32D00011D507B6901337B61E7E700BF1837BD4680BD80B586B000AF78607B6800225A617B6800229A617B681B6A3A
S32D00011D78FB60FB68FB72FB681B0ABB72FB681B0CDBB203F003037B722A217868FFF784FE00217868FFF726FFA0
S32D00011DA000217868FFF722FF01217868FFF71EFF3F217868FFF71AFF2B217868FFF770FE00217868FFF712FF00
S32D00011DC800217868FFF70EFF00217868FFF70AFFEF217868FFF706FF2C217868FFF75CFE314B1B68304A23F4F0
S32D00011DF0407313602F4B1B682E4A23F47F2323F0F00313602C4B1B682B4A23F01D031360274B1A687B681B6B85
S32D00011E18254913430B60254B1A687B685B6B234913430B60224B1A687B689B6B204913430B601E4B1B681D4A4F
S32D00011E4023F0080313601A4B1B68194A43F48023136000237B617B69EF2B19D800233B613B69B3F5A07F0FD251
S32D00011E68114B1B68104A23F4003313600E4B1B680D4A43F4003313603B6901333B61EBE77B6901337B61E2E742
S32D00011E90084B1B68074A43F008031360044B1B68034A23F48023136000BF1837BD4680BD40F00F4080F00F4073
S32D00011EB8C0F00F4080B483B000AF78607B689B69002B07DD7B685B695A1C7B685A617B6800229A6100BF0C375B
S32D00011EE0BD4680BC704780B582B000AF78607B685A697B685B689A4205DB7B6800225A617868FFF72DFF00BF66
S32D00011F080837BD4680BD80B582B000AF78607B689B695A1C7B689A617B689A697B689B689A4205D17868FFF7AE
S32D00011F30C5FF7868FFF7D7FF00BF0837BD4680BD80B586B002AFF860B9607A600123009301237A68B968F8682F
S32D00011F5800F059F8F86800F0D7FA00BF1037BD4680BD80B485B000AF786039607B681B68FB603B681A687B6860
S32D00011F801A603B68FA681A6000BF1437BD4680BC704780B586B002AFF860B9607A603B60BA683B681A447B6831
S32D00011FA8009313467A68B968F86800F0ABF8BA683B68D118BA683B68D0187A68BB691344009303467A68F86852
S32D00011FD000F09CF8BA683B68D1187A68BB69D0187A68BB6913440093BB680246F86800F08DF87A68BB691A442E
S32D00011FF87B680093BB68B968F86800F083F800BF1037BD4680BD80B588B000AFF860B9607A603B60FB681B78F7
S32D00012020022B03D0FB681B78032B11D17B68FB61BA6AFB691344013BBB61FB68DA68BB68D31A3B613B683A697E
S32D00012048D31A01337B610DE0BB68FB613A68FB691344013BBB617B687B61BA6A7B691344013B3B612A21F868AA
S32D00012070FFF716FDFB691B0ADBB203F00F03DBB21946F868FFF7B2FDFB69DBB21946F868FFF7ACFDBB691B0A94
S32D00012098DBB203F00F03DBB21946F868FFF7A2FDBB69DBB21946F868FFF79CFD2B21F868FFF7F2FC7B691B0A0E
S32D000120C0DBB203F00F03DBB21946F868FFF78EFD7B69DBB21946F868FFF788FD3B691B0ADBB203F00F03DBB2FF
S32D000120E81946F868FFF77EFD3B69DBB21946F868FFF778FD2C21F868FFF7CEFC00BF2037BD4680BD90B58BB0FB
S32D0001211000AFF860B9607A603B603A68BB68D31A1946F868FFF7B6FBF861BA6B7B68D31A1946F868FFF7AEFB47
S32D00012138B861BA69FB699A42CCBF01230023FB75FB7D002B0CD03A1D07F1080311461846FFF707FF3B4607F1B7
S32D0001216038011846FFF701FFBA683B689A420CDD3A4607F1080311461846FFF7F6FE3B1D07F138011846FFF73A
S32D00012188F0FE3A68BB689A4206D1BB687A681946F868FFF7D1FE55E0BA6B7B68D31A184602F0EEFD04463A68E8
S32D000121B0BB68D31A184602F0E7FD03461946204602F0EAFE03463B617B68184602F0DCFD03467B62BB683B62FD
S32D000121D83B683A6A9A4235DCFB7D002B14D0786A02F08AF94FF00002184B02F027F802460B461046194602F0D1
S32D0001220071FC03463A6A1946F868FFF799FE13E0786A02F075F94FF000020E4B02F012F802460B4610461946F0
S32D0001222802F05CFC03461A46396AF868FFF784FE3969786A02F0F0FC03467B623B6A01333B62C5E72C37BD4609
S32D0001225090BD00BF0000E03F80B584B000AFF860B9607A60FB707A6813465B0013449B00991CBA6813461B0192
S32D000122781344DA1CFB78F86800F004F800BF1037BD4680BD80B58EB002AFF860B9607A60FB70FB780A2B06D18C
S32D000122A0F868FFF720FEF868FFF708FEF2E0FB787D2B02D8FB781F2B01D82023FB70FB78203BFB701123009334
S32D000122C80C237A68B968F868FFF79DFEFA7813469B0013446F4AD35C3B75FA7813469B00134401336B4AD35C9A
S32D000122F07B75FA7813469B0013440233674AD35CBB75FA7813469B0013440333634AD35CFB75FA7813469B0028
S32D00012318134404335F4AD35C3B760023BB62BB6A062B00F3A180F86800F050F9F86800F0B3F8002387F82F3040
S32D0001234000237B627B6A042B35DC07F114027B6A13441B7803F00103002B14BF01230023FB76FB7E002B11D03A
S32D0001236897F82F3083F00103DBB2002B03D0F86800F0CAF802E0F86800F08EF8F86800F08BF80DE097F82F30DE
S32D00012390002B03D0F86800F01DF902E0F86800F07FF8F86800F07CF8FB7E87F82F307B6A01337B62C6E797F8C4
S32D000123B82F30002B03D0F86800F008F902E0F86800F06AF8F86800F067F8002387F82F3000233B623B6A042B70
S32D000123E042DC07F114023B6A13441B7803F00103002B14BF01230023BB76BB7E002B11D097F82F3083F00103FC
S32D00012408DBB2002B03D0F86800F07EF802E0F86800F042F8F86800F03FF80DE097F82F30002B03D0F86800F038
S32D00012430D1F802E0F86800F033F8F86800F030F8BB7E87F82F3007F114023B6A13441B785B08D9B207F114022F
S32D000124583B6A13440A461A703B6A01333B62B9E7BB6A0133BB625AE7F86800F0AFF8002387F82F300123FB613A
S32D00012480FB69232B06DCF86800F00AF8FB690133FB61F5E73037BD4680BD00BF540B002080B483B000AF7860A4
S32D000124A8174B1B68164A43F480331360154B1B68144A23F008031360114B1B68104A43F4802313600E4B1B682F
S32D000124D00D4A23F4003313600B4B1B680A4A43F400331360094B1B68084A43F008031360054B1B68044A23F4AD
S32D000124F88023136000BF0C37BD4680BC704700BF40F00F4080F00F4080B483B000AF78602B4B1B682A4A43F418
S32D0001252080331360294B1B68284A23F008031360254B1B68244A43F480231360224B1B68214A23F44073136026
S32D00012548204B1B681F4A23F47F2323F0F00313601D4B1B681C4A23F01D031360184B1A687B685B6A16491343A2
S32D000125700B60164B1A687B689B6A144913430B60134B1A687B68DB6A114913430B600E4B1B680D4A23F4003348
S32D0001259813600B4B1B680A4A43F400331360094B1B68084A43F008031360054B1B68044A23F48023136000BFB0
S32D000125C00C37BD4680BC704740F00F4080F00F40C0F00F4080B483B000AF78602B4B1B682A4A43F480331360BE
S32D000125E8294B1B68284A23F008031360254B1B68244A43F480231360224B1B68214A23F440731360204B1B6896
S32D000126101F4A23F47F2323F0F00313601D4B1B681C4A23F01D031360184B1A687B681B6B164913430B60164B3A
S32D000126381A687B685B6B144913430B60134B1A687B689B6B114913430B600E4B1B680D4A23F4003313600B4B00
S32D000126601B680A4A43F400331360094B1B68084A43F008031360054B1B68044A23F48023136000BF0C37BD466A
S32D0001268880BC704740F00F4080F00F40C0F00F4080B485B000AF78607B681B6AFB60FB68FB72FB681B0ABB72BB
S32D000126B0FB681B0CDBB203F003037B727B6800225A627B6800229A627B680022DA627B6800221A637B68002274
S32D000126D85A637B6800229A637B681A6BFB7A5B0203F400731A437B681A637B681A6BFB7A5B101B0203F4807364
S32D000127001A437B681A637B685A6BFB7A9B101B0103F010031A437B685A637B685A6BFB7ADB105B0103F020038C
S32D000127281A437B685A637B685A6BFB7A1B119B0103F040031A437B685A637B685A6BFB7A5B11DB01DBB21A431E
S32D000127507B685A637B685A6BFB7A9B111B0303F480531A437B685A637B685A6B97F90B30DB115BB25B0303F44B
S32D0001277800531A437B685A637B685A6BBB7A9B0303F480431A437B685A637B685A6BBB7A5B10DB039BB21A43E0
S32D000127A07B685A637B685A6BBB7A9B101B0403F480331A437B685A637B685A6BBB7ADB105B0403F400331A436E
S32D000127C87B685A637B685A6BBB7A1B119B0403F480231A437B685A637B685A6BBB7A5B11DB0403F400231A4364
S32D000127F07B685A637B689A6BBB7A9B1103F001031A437B689A637B689A6B97F90A30DB115BB29B0003F00403DD
S32D000128181A437B689A637B689A6B7B7ADB0003F008031A437B689A637B689A6B7B7A5B101B0103F010031A439A
S32D000128407B689A637B68DB69FB60FB68FB72FB681B0ABB72FB681B0CDBB203F003037B727B685A6AFB7A5B020C
S32D0001286803F400731A437B685A627B685A6AFB7A5B101B0203F480731A437B685A627B689A6AFB7A9B101B012E
S32D0001289003F010031A437B689A627B689A6AFB7ADB105B0103F020031A437B689A627B689A6AFB7A1B119B01BE
S32D000128B803F040031A437B689A627B689A6AFB7A5B11DB01DBB21A437B689A627B689A6AFB7A9B111B0303F4F5
S32D000128E080531A437B689A627B689A6A97F90B30DB115BB25B0303F400531A437B689A627B689A6ABB7A9B0371
S32D0001290803F480431A437B689A627B689A6ABB7A5B10DB039BB21A437B689A627B689A6ABB7A9B101B0403F4DF
S32D0001293080331A437B689A627B689A6ABB7ADB105B0403F400331A437B689A627B689A6ABB7A1B119B0403F4DF
